{
  "abi": [
    {
      "type": "constructor",
      "inputs": [],
      "stateMutability": "nonpayable"
    },
    {
      "type": "function",
      "name": "approve",
      "inputs": [
        {
          "name": "to",
          "type": "address",
          "internalType": "address"
        },
        {
          "name": "tokenId",
          "type": "uint256",
          "internalType": "uint256"
        }
      ],
      "outputs": [],
      "stateMutability": "nonpayable"
    },
    {
      "type": "function",
      "name": "balanceOf",
      "inputs": [
        {
          "name": "owner",
          "type": "address",
          "internalType": "address"
        }
      ],
      "outputs": [
        {
          "name": "",
          "type": "uint256",
          "internalType": "uint256"
        }
      ],
      "stateMutability": "view"
    },
    {
      "type": "function",
      "name": "burn",
      "inputs": [
        {
          "name": "tokenId",
          "type": "uint256",
          "internalType": "uint256"
        }
      ],
      "outputs": [],
      "stateMutability": "nonpayable"
    },
    {
      "type": "function",
      "name": "getApproved",
      "inputs": [
        {
          "name": "tokenId",
          "type": "uint256",
          "internalType": "uint256"
        }
      ],
      "outputs": [
        {
          "name": "",
          "type": "address",
          "internalType": "address"
        }
      ],
      "stateMutability": "view"
    },
    {
      "type": "function",
      "name": "isApprovedForAll",
      "inputs": [
        {
          "name": "owner",
          "type": "address",
          "internalType": "address"
        },
        {
          "name": "operator",
          "type": "address",
          "internalType": "address"
        }
      ],
      "outputs": [
        {
          "name": "",
          "type": "bool",
          "internalType": "bool"
        }
      ],
      "stateMutability": "view"
    },
    {
      "type": "function",
      "name": "name",
      "inputs": [],
      "outputs": [
        {
          "name": "",
          "type": "string",
          "internalType": "string"
        }
      ],
      "stateMutability": "view"
    },
    {
      "type": "function",
      "name": "owner",
      "inputs": [],
      "outputs": [
        {
          "name": "",
          "type": "address",
          "internalType": "address"
        }
      ],
      "stateMutability": "view"
    },
    {
      "type": "function",
      "name": "ownerOf",
      "inputs": [
        {
          "name": "tokenId",
          "type": "uint256",
          "internalType": "uint256"
        }
      ],
      "outputs": [
        {
          "name": "",
          "type": "address",
          "internalType": "address"
        }
      ],
      "stateMutability": "view"
    },
    {
      "type": "function",
      "name": "pause",
      "inputs": [],
      "outputs": [],
      "stateMutability": "nonpayable"
    },
    {
      "type": "function",
      "name": "paused",
      "inputs": [],
      "outputs": [
        {
          "name": "",
          "type": "bool",
          "internalType": "bool"
        }
      ],
      "stateMutability": "view"
    },
    {
      "type": "function",
      "name": "renounceOwnership",
      "inputs": [],
      "outputs": [],
      "stateMutability": "nonpayable"
    },
    {
      "type": "function",
      "name": "safeMint",
      "inputs": [
        {
          "name": "to",
          "type": "address",
          "internalType": "address"
        },
        {
          "name": "uri",
          "type": "string",
          "internalType": "string"
        }
      ],
      "outputs": [
        {
          "name": "",
          "type": "uint256",
          "internalType": "uint256"
        }
      ],
      "stateMutability": "nonpayable"
    },
    {
      "type": "function",
      "name": "safeTransferFrom",
      "inputs": [
        {
          "name": "from",
          "type": "address",
          "internalType": "address"
        },
        {
          "name": "to",
          "type": "address",
          "internalType": "address"
        },
        {
          "name": "tokenId",
          "type": "uint256",
          "internalType": "uint256"
        }
      ],
      "outputs": [],
      "stateMutability": "nonpayable"
    },
    {
      "type": "function",
      "name": "safeTransferFrom",
      "inputs": [
        {
          "name": "from",
          "type": "address",
          "internalType": "address"
        },
        {
          "name": "to",
          "type": "address",
          "internalType": "address"
        },
        {
          "name": "tokenId",
          "type": "uint256",
          "internalType": "uint256"
        },
        {
          "name": "data",
          "type": "bytes",
          "internalType": "bytes"
        }
      ],
      "outputs": [],
      "stateMutability": "nonpayable"
    },
    {
      "type": "function",
      "name": "setApprovalForAll",
      "inputs": [
        {
          "name": "operator",
          "type": "address",
          "internalType": "address"
        },
        {
          "name": "approved",
          "type": "bool",
          "internalType": "bool"
        }
      ],
      "outputs": [],
      "stateMutability": "nonpayable"
    },
    {
      "type": "function",
      "name": "supportsInterface",
      "inputs": [
        {
          "name": "interfaceId",
          "type": "bytes4",
          "internalType": "bytes4"
        }
      ],
      "outputs": [
        {
          "name": "",
          "type": "bool",
          "internalType": "bool"
        }
      ],
      "stateMutability": "view"
    },
    {
      "type": "function",
      "name": "symbol",
      "inputs": [],
      "outputs": [
        {
          "name": "",
          "type": "string",
          "internalType": "string"
        }
      ],
      "stateMutability": "view"
    },
    {
      "type": "function",
      "name": "tokenURI",
      "inputs": [
        {
          "name": "tokenId",
          "type": "uint256",
          "internalType": "uint256"
        }
      ],
      "outputs": [
        {
          "name": "",
          "type": "string",
          "internalType": "string"
        }
      ],
      "stateMutability": "view"
    },
    {
      "type": "function",
      "name": "transferFrom",
      "inputs": [
        {
          "name": "from",
          "type": "address",
          "internalType": "address"
        },
        {
          "name": "to",
          "type": "address",
          "internalType": "address"
        },
        {
          "name": "tokenId",
          "type": "uint256",
          "internalType": "uint256"
        }
      ],
      "outputs": [],
      "stateMutability": "nonpayable"
    },
    {
      "type": "function",
      "name": "transferOwnership",
      "inputs": [
        {
          "name": "newOwner",
          "type": "address",
          "internalType": "address"
        }
      ],
      "outputs": [],
      "stateMutability": "nonpayable"
    },
    {
      "type": "function",
      "name": "unpause",
      "inputs": [],
      "outputs": [],
      "stateMutability": "nonpayable"
    },
    {
      "type": "event",
      "name": "Approval",
      "inputs": [
        {
          "name": "owner",
          "type": "address",
          "indexed": true,
          "internalType": "address"
        },
        {
          "name": "approved",
          "type": "address",
          "indexed": true,
          "internalType": "address"
        },
        {
          "name": "tokenId",
          "type": "uint256",
          "indexed": true,
          "internalType": "uint256"
        }
      ],
      "anonymous": false
    },
    {
      "type": "event",
      "name": "ApprovalForAll",
      "inputs": [
        {
          "name": "owner",
          "type": "address",
          "indexed": true,
          "internalType": "address"
        },
        {
          "name": "operator",
          "type": "address",
          "indexed": true,
          "internalType": "address"
        },
        {
          "name": "approved",
          "type": "bool",
          "indexed": false,
          "internalType": "bool"
        }
      ],
      "anonymous": false
    },
    {
      "type": "event",
      "name": "BatchMetadataUpdate",
      "inputs": [
        {
          "name": "_fromTokenId",
          "type": "uint256",
          "indexed": false,
          "internalType": "uint256"
        },
        {
          "name": "_toTokenId",
          "type": "uint256",
          "indexed": false,
          "internalType": "uint256"
        }
      ],
      "anonymous": false
    },
    {
      "type": "event",
      "name": "MetadataUpdate",
      "inputs": [
        {
          "name": "_tokenId",
          "type": "uint256",
          "indexed": false,
          "internalType": "uint256"
        }
      ],
      "anonymous": false
    },
    {
      "type": "event",
      "name": "OwnershipTransferred",
      "inputs": [
        {
          "name": "previousOwner",
          "type": "address",
          "indexed": true,
          "internalType": "address"
        },
        {
          "name": "newOwner",
          "type": "address",
          "indexed": true,
          "internalType": "address"
        }
      ],
      "anonymous": false
    },
    {
      "type": "event",
      "name": "Paused",
      "inputs": [
        {
          "name": "account",
          "type": "address",
          "indexed": false,
          "internalType": "address"
        }
      ],
      "anonymous": false
    },
    {
      "type": "event",
      "name": "Transfer",
      "inputs": [
        {
          "name": "from",
          "type": "address",
          "indexed": true,
          "internalType": "address"
        },
        {
          "name": "to",
          "type": "address",
          "indexed": true,
          "internalType": "address"
        },
        {
          "name": "tokenId",
          "type": "uint256",
          "indexed": true,
          "internalType": "uint256"
        }
      ],
      "anonymous": false
    },
    {
      "type": "event",
      "name": "Unpaused",
      "inputs": [
        {
          "name": "account",
          "type": "address",
          "indexed": false,
          "internalType": "address"
        }
      ],
      "anonymous": false
    },
    {
      "type": "error",
      "name": "ERC721IncorrectOwner",
      "inputs": [
        {
          "name": "sender",
          "type": "address",
          "internalType": "address"
        },
        {
          "name": "tokenId",
          "type": "uint256",
          "internalType": "uint256"
        },
        {
          "name": "owner",
          "type": "address",
          "internalType": "address"
        }
      ]
    },
    {
      "type": "error",
      "name": "ERC721InsufficientApproval",
      "inputs": [
        {
          "name": "operator",
          "type": "address",
          "internalType": "address"
        },
        {
          "name": "tokenId",
          "type": "uint256",
          "internalType": "uint256"
        }
      ]
    },
    {
      "type": "error",
      "name": "ERC721InvalidApprover",
      "inputs": [
        {
          "name": "approver",
          "type": "address",
          "internalType": "address"
        }
      ]
    },
    {
      "type": "error",
      "name": "ERC721InvalidOperator",
      "inputs": [
        {
          "name": "operator",
          "type": "address",
          "internalType": "address"
        }
      ]
    },
    {
      "type": "error",
      "name": "ERC721InvalidOwner",
      "inputs": [
        {
          "name": "owner",
          "type": "address",
          "internalType": "address"
        }
      ]
    },
    {
      "type": "error",
      "name": "ERC721InvalidReceiver",
      "inputs": [
        {
          "name": "receiver",
          "type": "address",
          "internalType": "address"
        }
      ]
    },
    {
      "type": "error",
      "name": "ERC721InvalidSender",
      "inputs": [
        {
          "name": "sender",
          "type": "address",
          "internalType": "address"
        }
      ]
    },
    {
      "type": "error",
      "name": "ERC721NonexistentToken",
      "inputs": [
        {
          "name": "tokenId",
          "type": "uint256",
          "internalType": "uint256"
        }
      ]
    },
    {
      "type": "error",
      "name": "EnforcedPause",
      "inputs": []
    },
    {
      "type": "error",
      "name": "ExpectedPause",
      "inputs": []
    },
    {
      "type": "error",
      "name": "OwnableInvalidOwner",
      "inputs": [
        {
          "name": "owner",
          "type": "address",
          "internalType": "address"
        }
      ]
    },
    {
      "type": "error",
      "name": "OwnableUnauthorizedAccount",
      "inputs": [
        {
          "name": "account",
          "type": "address",
          "internalType": "address"
        }
      ]
    }
  ],
  "bytecode": {
    "object": "0x608060405234801561000f575f5ffd5b50336040518060400160405280600781526020017f50686f654e4654000000000000000000000000000000000000000000000000008152506040518060400160405280600581526020017f50484f454e000000000000000000000000000000000000000000000000000000815250815f908161008b9190610425565b50806001908161009b9190610425565b5050505f73ffffffffffffffffffffffffffffffffffffffff168173ffffffffffffffffffffffffffffffffffffffff160361010e575f6040517f1e4fbdf70000000000000000000000000000000000000000000000000000000081526004016101059190610533565b60405180910390fd5b61011d8161012360201b60201c565b5061054c565b5f600760019054906101000a900473ffffffffffffffffffffffffffffffffffffffff16905081600760016101000a81548173ffffffffffffffffffffffffffffffffffffffff021916908373ffffffffffffffffffffffffffffffffffffffff1602179055508173ffffffffffffffffffffffffffffffffffffffff168173ffffffffffffffffffffffffffffffffffffffff167f8be0079c531659141344cd1fd0a4f28419497f9722a3daafe3b4186f6b6457e060405160405180910390a35050565b5f81519050919050565b7f4e487b71000000000000000000000000000000000000000000000000000000005f52604160045260245ffd5b7f4e487b71000000000000000000000000000000000000000000000000000000005f52602260045260245ffd5b5f600282049050600182168061026357607f821691505b6020821081036102765761027561021f565b5b50919050565b5f819050815f5260205f209050919050565b5f6020601f8301049050919050565b5f82821b905092915050565b5f600883026102d87fffffffffffffffffffffffffffffffffffffffffffffffffffffffffffffffff8261029d565b6102e2868361029d565b95508019841693508086168417925050509392505050565b5f819050919050565b5f819050919050565b5f61032661032161031c846102fa565b610303565b6102fa565b9050919050565b5f819050919050565b61033f8361030c565b61035361034b8261032d565b8484546102a9565b825550505050565b5f5f905090565b61036a61035b565b610375818484610336565b505050565b5b818110156103985761038d5f82610362565b60018101905061037b565b5050565b601f8211156103dd576103ae8161027c565b6103b78461028e565b810160208510156103c6578190505b6103da6103d28561028e565b83018261037a565b50505b505050565b5f82821c905092915050565b5f6103fd5f19846008026103e2565b1980831691505092915050565b5f61041583836103ee565b9150826002028217905092915050565b61042e826101e8565b67ffffffffffffffff811115610447576104466101f2565b5b610451825461024c565b61045c82828561039c565b5f60209050601f83116001811461048d575f841561047b578287015190505b610485858261040a565b8655506104ec565b601f19841661049b8661027c565b5f5b828110156104c25784890151825560018201915060208501945060208101905061049d565b868310156104df57848901516104db601f8916826103ee565b8355505b6001600288020188555050505b505050505050565b5f73ffffffffffffffffffffffffffffffffffffffff82169050919050565b5f61051d826104f4565b9050919050565b61052d81610513565b82525050565b5f6020820190506105465f830184610524565b92915050565b6127ef806105595f395ff3fe608060405234801561000f575f5ffd5b5060043610610135575f3560e01c806370a08231116100b6578063a22cb4651161007a578063a22cb465146102ff578063b88d4fde1461031b578063c87b56dd14610337578063d204c45e14610367578063e985e9c514610397578063f2fde38b146103c757610135565b806370a082311461027f578063715018a6146102af5780638456cb59146102b95780638da5cb5b146102c357806395d89b41146102e157610135565b80633f4ba83a116100fd5780633f4ba83a146101ef57806342842e0e146101f957806342966c68146102155780635c975abb146102315780636352211e1461024f57610135565b806301ffc9a71461013957806306fdde0314610169578063081812fc14610187578063095ea7b3146101b757806323b872dd146101d3575b5f5ffd5b610153600480360381019061014e9190611cbf565b6103e3565b6040516101609190611d04565b60405180910390f35b6101716103f4565b60405161017e9190611d8d565b60405180910390f35b6101a1600480360381019061019c9190611de0565b610483565b6040516101ae9190611e4a565b60405180910390f35b6101d160048036038101906101cc9190611e8d565b61049e565b005b6101ed60048036038101906101e89190611ecb565b6104b4565b005b6101f76105b3565b005b610213600480360381019061020e9190611ecb565b6105c5565b005b61022f600480360381019061022a9190611de0565b6105e4565b005b6102396105fa565b6040516102469190611d04565b60405180910390f35b61026960048036038101906102649190611de0565b61060f565b6040516102769190611e4a565b60405180910390f35b61029960048036038101906102949190611f1b565b610620565b6040516102a69190611f55565b60405180910390f35b6102b76106d6565b005b6102c16106e9565b005b6102cb6106fb565b6040516102d89190611e4a565b60405180910390f35b6102e9610724565b6040516102f69190611d8d565b60405180910390f35b61031960048036038101906103149190611f98565b6107b4565b005b61033560048036038101906103309190612102565b6107ca565b005b610351600480360381019061034c9190611de0565b6107ef565b60405161035e9190611d8d565b60405180910390f35b610381600480360381019061037c9190612220565b610801565b60405161038e9190611f55565b60405180910390f35b6103b160048036038101906103ac919061227a565b610839565b6040516103be9190611d04565b60405180910390f35b6103e160048036038101906103dc9190611f1b565b6108c7565b005b5f6103ed8261094b565b9050919050565b60605f8054610402906122e5565b80601f016020809104026020016040519081016040528092919081815260200182805461042e906122e5565b80156104795780601f1061045057610100808354040283529160200191610479565b820191905f5260205f20905b81548152906001019060200180831161045c57829003601f168201915b5050505050905090565b5f61048d826109ab565b5061049782610a31565b9050919050565b6104b082826104ab610a6a565b610a71565b5050565b5f73ffffffffffffffffffffffffffffffffffffffff168273ffffffffffffffffffffffffffffffffffffffff1603610524575f6040517f64a0ae9200000000000000000000000000000000000000000000000000000000815260040161051b9190611e4a565b60405180910390fd5b5f6105378383610532610a6a565b610a83565b90508373ffffffffffffffffffffffffffffffffffffffff168173ffffffffffffffffffffffffffffffffffffffff16146105ad578382826040517f64283d7b0000000000000000000000000000000000000000000000000000000081526004016105a493929190612315565b60405180910390fd5b50505050565b6105bb610a98565b6105c3610b1f565b565b6105df83838360405180602001604052805f8152506107ca565b505050565b6105f65f826105f1610a6a565b610a83565b5050565b5f60075f9054906101000a900460ff16905090565b5f610619826109ab565b9050919050565b5f5f73ffffffffffffffffffffffffffffffffffffffff168273ffffffffffffffffffffffffffffffffffffffff1603610691575f6040517f89c62b640000000000000000000000000000000000000000000000000000000081526004016106889190611e4a565b60405180910390fd5b60035f8373ffffffffffffffffffffffffffffffffffffffff1673ffffffffffffffffffffffffffffffffffffffff1681526020019081526020015f20549050919050565b6106de610a98565b6106e75f610b80565b565b6106f1610a98565b6106f9610c45565b565b5f600760019054906101000a900473ffffffffffffffffffffffffffffffffffffffff16905090565b606060018054610733906122e5565b80601f016020809104026020016040519081016040528092919081815260200182805461075f906122e5565b80156107aa5780601f10610781576101008083540402835291602001916107aa565b820191905f5260205f20905b81548152906001019060200180831161078d57829003601f168201915b5050505050905090565b6107c66107bf610a6a565b8383610ca7565b5050565b6107d58484846104b4565b6107e96107e0610a6a565b85858585610e10565b50505050565b60606107fa82610fbc565b9050919050565b5f5f60085f81548092919061081590612377565b91905055905061082584826110c7565b61082f81846110e4565b8091505092915050565b5f60055f8473ffffffffffffffffffffffffffffffffffffffff1673ffffffffffffffffffffffffffffffffffffffff1681526020019081526020015f205f8373ffffffffffffffffffffffffffffffffffffffff1673ffffffffffffffffffffffffffffffffffffffff1681526020019081526020015f205f9054906101000a900460ff16905092915050565b6108cf610a98565b5f73ffffffffffffffffffffffffffffffffffffffff168173ffffffffffffffffffffffffffffffffffffffff160361093f575f6040517f1e4fbdf70000000000000000000000000000000000000000000000000000000081526004016109369190611e4a565b60405180910390fd5b61094881610b80565b50565b5f634906490660e01b7bffffffffffffffffffffffffffffffffffffffffffffffffffffffff1916827bffffffffffffffffffffffffffffffffffffffffffffffffffffffff191614806109a457506109a38261113e565b5b9050919050565b5f5f6109b68361121f565b90505f73ffffffffffffffffffffffffffffffffffffffff168173ffffffffffffffffffffffffffffffffffffffff1603610a2857826040517f7e273289000000000000000000000000000000000000000000000000000000008152600401610a1f9190611f55565b60405180910390fd5b80915050919050565b5f60045f8381526020019081526020015f205f9054906101000a900473ffffffffffffffffffffffffffffffffffffffff169050919050565b5f33905090565b610a7e8383836001611258565b505050565b5f610a8f848484611417565b90509392505050565b610aa0610a6a565b73ffffffffffffffffffffffffffffffffffffffff16610abe6106fb565b73ffffffffffffffffffffffffffffffffffffffff1614610b1d57610ae1610a6a565b6040517f118cdaa7000000000000000000000000000000000000000000000000000000008152600401610b149190611e4a565b60405180910390fd5b565b610b27611434565b5f60075f6101000a81548160ff0219169083151502179055507f5db9ee0a495bf2e6ff9c91a7834c1ba4fdd244a5e8aa4e537bd38aeae4b073aa610b69610a6a565b604051610b769190611e4a565b60405180910390a1565b5f600760019054906101000a900473ffffffffffffffffffffffffffffffffffffffff16905081600760016101000a81548173ffffffffffffffffffffffffffffffffffffffff021916908373ffffffffffffffffffffffffffffffffffffffff1602179055508173ffffffffffffffffffffffffffffffffffffffff168173ffffffffffffffffffffffffffffffffffffffff167f8be0079c531659141344cd1fd0a4f28419497f9722a3daafe3b4186f6b6457e060405160405180910390a35050565b610c4d611474565b600160075f6101000a81548160ff0219169083151502179055507f62e78cea01bee320cd4e420270b5ea74000d11b0c9f74754ebdbfc544b05a258610c90610a6a565b604051610c9d9190611e4a565b60405180910390a1565b5f73ffffffffffffffffffffffffffffffffffffffff168273ffffffffffffffffffffffffffffffffffffffff1603610d1757816040517f5b08ba18000000000000000000000000000000000000000000000000000000008152600401610d0e9190611e4a565b60405180910390fd5b8060055f8573ffffffffffffffffffffffffffffffffffffffff1673ffffffffffffffffffffffffffffffffffffffff1681526020019081526020015f205f8473ffffffffffffffffffffffffffffffffffffffff1673ffffffffffffffffffffffffffffffffffffffff1681526020019081526020015f205f6101000a81548160ff0219169083151502179055508173ffffffffffffffffffffffffffffffffffffffff168373ffffffffffffffffffffffffffffffffffffffff167f17307eab39ab6107e8899845ad3d59bd9653f200f220920489ca2b5937696c3183604051610e039190611d04565b60405180910390a3505050565b5f8373ffffffffffffffffffffffffffffffffffffffff163b1115610fb5578273ffffffffffffffffffffffffffffffffffffffff1663150b7a02868685856040518563ffffffff1660e01b8152600401610e6e9493929190612410565b6020604051808303815f875af1925050508015610ea957506040513d601f19601f82011682018060405250810190610ea6919061246e565b60015b610f2a573d805f8114610ed7576040519150601f19603f3d011682016040523d82523d5f602084013e610edc565b606091505b505f815103610f2257836040517f64a0ae92000000000000000000000000000000000000000000000000000000008152600401610f199190611e4a565b60405180910390fd5b805181602001fd5b63150b7a0260e01b7bffffffffffffffffffffffffffffffffffffffffffffffffffffffff1916817bffffffffffffffffffffffffffffffffffffffffffffffffffffffff191614610fb357836040517f64a0ae92000000000000000000000000000000000000000000000000000000008152600401610faa9190611e4a565b60405180910390fd5b505b5050505050565b6060610fc7826109ab565b505f60065f8481526020019081526020015f208054610fe5906122e5565b80601f0160208091040260200160405190810160405280929190818152602001828054611011906122e5565b801561105c5780601f106110335761010080835404028352916020019161105c565b820191905f5260205f20905b81548152906001019060200180831161103f57829003601f168201915b505050505090505f61106c6114b5565b90505f8151036110805781925050506110c2565b5f825111156110b457808260405160200161109c9291906124d3565b604051602081830303815290604052925050506110c2565b6110bd846114cb565b925050505b919050565b6110e0828260405180602001604052805f815250611531565b5050565b8060065f8481526020019081526020015f2090816111029190612696565b507ff8e1a15aba9398e019f0b49df1a4fde98ee17ae345cb5f6b5e2c27f5033e8ce7826040516111329190611f55565b60405180910390a15050565b5f7f80ac58cd000000000000000000000000000000000000000000000000000000007bffffffffffffffffffffffffffffffffffffffffffffffffffffffff1916827bffffffffffffffffffffffffffffffffffffffffffffffffffffffff1916148061120857507f5b5e139f000000000000000000000000000000000000000000000000000000007bffffffffffffffffffffffffffffffffffffffffffffffffffffffff1916827bffffffffffffffffffffffffffffffffffffffffffffffffffffffff1916145b80611218575061121782611554565b5b9050919050565b5f60025f8381526020019081526020015f205f9054906101000a900473ffffffffffffffffffffffffffffffffffffffff169050919050565b808061129057505f73ffffffffffffffffffffffffffffffffffffffff168273ffffffffffffffffffffffffffffffffffffffff1614155b156113c2575f61129f846109ab565b90505f73ffffffffffffffffffffffffffffffffffffffff168373ffffffffffffffffffffffffffffffffffffffff161415801561130957508273ffffffffffffffffffffffffffffffffffffffff168173ffffffffffffffffffffffffffffffffffffffff1614155b801561131c575061131a8184610839565b155b1561135e57826040517fa9fbf51f0000000000000000000000000000000000000000000000000000000081526004016113559190611e4a565b60405180910390fd5b81156113c057838573ffffffffffffffffffffffffffffffffffffffff168273ffffffffffffffffffffffffffffffffffffffff167f8c5be1e5ebec7d5bd14f71427d1e84f3dd0314c0f7b2291e5b200ac8c7c3b92560405160405180910390a45b505b8360045f8581526020019081526020015f205f6101000a81548173ffffffffffffffffffffffffffffffffffffffff021916908373ffffffffffffffffffffffffffffffffffffffff16021790555050505050565b5f611420611474565b61142b8484846115bd565b90509392505050565b61143c6105fa565b611472576040517f8dfc202b00000000000000000000000000000000000000000000000000000000815260040160405180910390fd5b565b61147c6105fa565b156114b3576040517fd93c066500000000000000000000000000000000000000000000000000000000815260040160405180910390fd5b565b606060405180602001604052805f815250905090565b60606114d6826109ab565b505f6114e06114b5565b90505f8151116114fe5760405180602001604052805f815250611529565b80611508846117c8565b6040516020016115199291906124d3565b6040516020818303038152906040525b915050919050565b61153b8383611892565b61154f611546610a6a565b5f858585610e10565b505050565b5f7f01ffc9a7000000000000000000000000000000000000000000000000000000007bffffffffffffffffffffffffffffffffffffffffffffffffffffffff1916827bffffffffffffffffffffffffffffffffffffffffffffffffffffffff1916149050919050565b5f5f6115c88461121f565b90505f73ffffffffffffffffffffffffffffffffffffffff168373ffffffffffffffffffffffffffffffffffffffff161461160957611608818486611985565b5b5f73ffffffffffffffffffffffffffffffffffffffff168173ffffffffffffffffffffffffffffffffffffffff1614611694576116485f855f5f611258565b600160035f8373ffffffffffffffffffffffffffffffffffffffff1673ffffffffffffffffffffffffffffffffffffffff1681526020019081526020015f205f82825403925050819055505b5f73ffffffffffffffffffffffffffffffffffffffff168573ffffffffffffffffffffffffffffffffffffffff161461171357600160035f8773ffffffffffffffffffffffffffffffffffffffff1673ffffffffffffffffffffffffffffffffffffffff1681526020019081526020015f205f82825401925050819055505b8460025f8681526020019081526020015f205f6101000a81548173ffffffffffffffffffffffffffffffffffffffff021916908373ffffffffffffffffffffffffffffffffffffffff160217905550838573ffffffffffffffffffffffffffffffffffffffff168273ffffffffffffffffffffffffffffffffffffffff167fddf252ad1be2c89b69c2b068fc378daa952ba7f163c4a11628f55a4df523b3ef60405160405180910390a4809150509392505050565b60605f60016117d684611a48565b0190505f8167ffffffffffffffff8111156117f4576117f3611fde565b5b6040519080825280601f01601f1916602001820160405280156118265781602001600182028036833780820191505090505b5090505f82602001820190505b600115611887578080600190039150507f3031323334353637383961626364656600000000000000000000000000000000600a86061a8153600a858161187c5761187b612765565b5b0494505f8503611833575b819350505050919050565b5f73ffffffffffffffffffffffffffffffffffffffff168273ffffffffffffffffffffffffffffffffffffffff1603611902575f6040517f64a0ae920000000000000000000000000000000000000000000000000000000081526004016118f99190611e4a565b60405180910390fd5b5f61190e83835f610a83565b90505f73ffffffffffffffffffffffffffffffffffffffff168173ffffffffffffffffffffffffffffffffffffffff1614611980575f6040517f73c6ac6e0000000000000000000000000000000000000000000000000000000081526004016119779190611e4a565b60405180910390fd5b505050565b611990838383611b99565b611a43575f73ffffffffffffffffffffffffffffffffffffffff168373ffffffffffffffffffffffffffffffffffffffff1603611a0457806040517f7e2732890000000000000000000000000000000000000000000000000000000081526004016119fb9190611f55565b60405180910390fd5b81816040517f177e802f000000000000000000000000000000000000000000000000000000008152600401611a3a929190612792565b60405180910390fd5b505050565b5f5f5f90507a184f03e93ff9f4daa797ed6e38ed64bf6a1f0100000000000000008310611aa4577a184f03e93ff9f4daa797ed6e38ed64bf6a1f0100000000000000008381611a9a57611a99612765565b5b0492506040810190505b6d04ee2d6d415b85acef81000000008310611ae1576d04ee2d6d415b85acef81000000008381611ad757611ad6612765565b5b0492506020810190505b662386f26fc100008310611b1057662386f26fc100008381611b0657611b05612765565b5b0492506010810190505b6305f5e1008310611b39576305f5e1008381611b2f57611b2e612765565b5b0492506008810190505b6127108310611b5e576127108381611b5457611b53612765565b5b0492506004810190505b60648310611b815760648381611b7757611b76612765565b5b0492506002810190505b600a8310611b90576001810190505b80915050919050565b5f5f73ffffffffffffffffffffffffffffffffffffffff168373ffffffffffffffffffffffffffffffffffffffff1614158015611c5057508273ffffffffffffffffffffffffffffffffffffffff168473ffffffffffffffffffffffffffffffffffffffff161480611c115750611c108484610839565b5b80611c4f57508273ffffffffffffffffffffffffffffffffffffffff16611c3783610a31565b73ffffffffffffffffffffffffffffffffffffffff16145b5b90509392505050565b5f604051905090565b5f5ffd5b5f5ffd5b5f7fffffffff0000000000000000000000000000000000000000000000000000000082169050919050565b611c9e81611c6a565b8114611ca8575f5ffd5b50565b5f81359050611cb981611c95565b92915050565b5f60208284031215611cd457611cd3611c62565b5b5f611ce184828501611cab565b91505092915050565b5f8115159050919050565b611cfe81611cea565b82525050565b5f602082019050611d175f830184611cf5565b92915050565b5f81519050919050565b5f82825260208201905092915050565b8281835e5f83830152505050565b5f601f19601f8301169050919050565b5f611d5f82611d1d565b611d698185611d27565b9350611d79818560208601611d37565b611d8281611d45565b840191505092915050565b5f6020820190508181035f830152611da58184611d55565b905092915050565b5f819050919050565b611dbf81611dad565b8114611dc9575f5ffd5b50565b5f81359050611dda81611db6565b92915050565b5f60208284031215611df557611df4611c62565b5b5f611e0284828501611dcc565b91505092915050565b5f73ffffffffffffffffffffffffffffffffffffffff82169050919050565b5f611e3482611e0b565b9050919050565b611e4481611e2a565b82525050565b5f602082019050611e5d5f830184611e3b565b92915050565b611e6c81611e2a565b8114611e76575f5ffd5b50565b5f81359050611e8781611e63565b92915050565b5f5f60408385031215611ea357611ea2611c62565b5b5f611eb085828601611e79565b9250506020611ec185828601611dcc565b9150509250929050565b5f5f5f60608486031215611ee257611ee1611c62565b5b5f611eef86828701611e79565b9350506020611f0086828701611e79565b9250506040611f1186828701611dcc565b9150509250925092565b5f60208284031215611f3057611f2f611c62565b5b5f611f3d84828501611e79565b91505092915050565b611f4f81611dad565b82525050565b5f602082019050611f685f830184611f46565b92915050565b611f7781611cea565b8114611f81575f5ffd5b50565b5f81359050611f9281611f6e565b92915050565b5f5f60408385031215611fae57611fad611c62565b5b5f611fbb85828601611e79565b9250506020611fcc85828601611f84565b9150509250929050565b5f5ffd5b5f5ffd5b7f4e487b71000000000000000000000000000000000000000000000000000000005f52604160045260245ffd5b61201482611d45565b810181811067ffffffffffffffff8211171561203357612032611fde565b5b80604052505050565b5f612045611c59565b9050612051828261200b565b919050565b5f67ffffffffffffffff8211156120705761206f611fde565b5b61207982611d45565b9050602081019050919050565b828183375f83830152505050565b5f6120a66120a184612056565b61203c565b9050828152602081018484840111156120c2576120c1611fda565b5b6120cd848285612086565b509392505050565b5f82601f8301126120e9576120e8611fd6565b5b81356120f9848260208601612094565b91505092915050565b5f5f5f5f6080858703121561211a57612119611c62565b5b5f61212787828801611e79565b945050602061213887828801611e79565b935050604061214987828801611dcc565b925050606085013567ffffffffffffffff81111561216a57612169611c66565b5b612176878288016120d5565b91505092959194509250565b5f67ffffffffffffffff82111561219c5761219b611fde565b5b6121a582611d45565b9050602081019050919050565b5f6121c46121bf84612182565b61203c565b9050828152602081018484840111156121e0576121df611fda565b5b6121eb848285612086565b509392505050565b5f82601f83011261220757612206611fd6565b5b81356122178482602086016121b2565b91505092915050565b5f5f6040838503121561223657612235611c62565b5b5f61224385828601611e79565b925050602083013567ffffffffffffffff81111561226457612263611c66565b5b612270858286016121f3565b9150509250929050565b5f5f604083850312156122905761228f611c62565b5b5f61229d85828601611e79565b92505060206122ae85828601611e79565b9150509250929050565b7f4e487b71000000000000000000000000000000000000000000000000000000005f52602260045260245ffd5b5f60028204905060018216806122fc57607f821691505b60208210810361230f5761230e6122b8565b5b50919050565b5f6060820190506123285f830186611e3b565b6123356020830185611f46565b6123426040830184611e3b565b949350505050565b7f4e487b71000000000000000000000000000000000000000000000000000000005f52601160045260245ffd5b5f61238182611dad565b91507fffffffffffffffffffffffffffffffffffffffffffffffffffffffffffffffff82036123b3576123b261234a565b5b600182019050919050565b5f81519050919050565b5f82825260208201905092915050565b5f6123e2826123be565b6123ec81856123c8565b93506123fc818560208601611d37565b61240581611d45565b840191505092915050565b5f6080820190506124235f830187611e3b565b6124306020830186611e3b565b61243d6040830185611f46565b818103606083015261244f81846123d8565b905095945050505050565b5f8151905061246881611c95565b92915050565b5f6020828403121561248357612482611c62565b5b5f6124908482850161245a565b91505092915050565b5f81905092915050565b5f6124ad82611d1d565b6124b78185612499565b93506124c7818560208601611d37565b80840191505092915050565b5f6124de82856124a3565b91506124ea82846124a3565b91508190509392505050565b5f819050815f5260205f209050919050565b5f6020601f8301049050919050565b5f82821b905092915050565b5f600883026125527fffffffffffffffffffffffffffffffffffffffffffffffffffffffffffffffff82612517565b61255c8683612517565b95508019841693508086168417925050509392505050565b5f819050919050565b5f61259761259261258d84611dad565b612574565b611dad565b9050919050565b5f819050919050565b6125b08361257d565b6125c46125bc8261259e565b848454612523565b825550505050565b5f5f905090565b6125db6125cc565b6125e68184846125a7565b505050565b5b81811015612609576125fe5f826125d3565b6001810190506125ec565b5050565b601f82111561264e5761261f816124f6565b61262884612508565b81016020851015612637578190505b61264b61264385612508565b8301826125eb565b50505b505050565b5f82821c905092915050565b5f61266e5f1984600802612653565b1980831691505092915050565b5f612686838361265f565b9150826002028217905092915050565b61269f82611d1d565b67ffffffffffffffff8111156126b8576126b7611fde565b5b6126c282546122e5565b6126cd82828561260d565b5f60209050601f8311600181146126fe575f84156126ec578287015190505b6126f6858261267b565b86555061275d565b601f19841661270c866124f6565b5f5b828110156127335784890151825560018201915060208501945060208101905061270e565b86831015612750578489015161274c601f89168261265f565b8355505b6001600288020188555050505b505050505050565b7f4e487b71000000000000000000000000000000000000000000000000000000005f52601260045260245ffd5b5f6040820190506127a55f830185611e3b565b6127b26020830184611f46565b939250505056fea2646970667358221220ff94ed962931aaadb92c4864905993cc9d188d89af58bc23e660307fa268de2664736f6c634300081c0033",
    "linkReferences": {}
  },
  "methodIdentifiers": {
    "approve(address,uint256)": "095ea7b3",
    "balanceOf(address)": "70a08231",
    "burn(uint256)": "42966c68",
    "getApproved(uint256)": "081812fc",
    "isApprovedForAll(address,address)": "e985e9c5",
    "name()": "06fdde03",
    "owner()": "8da5cb5b",
    "ownerOf(uint256)": "6352211e",
    "pause()": "8456cb59",
    "paused()": "5c975abb",
    "renounceOwnership()": "715018a6",
    "safeMint(address,string)": "d204c45e",
    "safeTransferFrom(address,address,uint256)": "42842e0e",
    "safeTransferFrom(address,address,uint256,bytes)": "b88d4fde",
    "setApprovalForAll(address,bool)": "a22cb465",
    "supportsInterface(bytes4)": "01ffc9a7",
    "symbol()": "95d89b41",
    "tokenURI(uint256)": "c87b56dd",
    "transferFrom(address,address,uint256)": "23b872dd",
    "transferOwnership(address)": "f2fde38b",
    "unpause()": "3f4ba83a"
  },
  "id": 22
}